:020000040800F2
:1000000000000220395E0008B95B0008BF5B0008F1
:10001000C55B0008CB5B0008D15B00080000000056
:10002000000000000000000000000000D75B000896
:10003000E55B000800000000F35B0008015C0008BD
:10004000895E0008895E0008895E0008895E0008F4
:10005000895E0008895E0008895E0008895E0008E4
:10006000895E0008895E0008895E0008895E0008D4
:10007000895E0008895E0008895E0008895E0008C4
:10008000895E0008895E0008895E000800000000A3
:10009000000000000000000000000000115C0008EB
:1000A000895E00082D5C0008895E0008895E0008F2
:1000B000415C0008895E0008895E0008895E0008CE
:1000C000895E0008895E0008895E0008895E000874
:1000D000895E0008895E0008555C00080000000089
:1000E000695C0008895E0008895E00080000000065
:1000F000000000000000000000000000895E000811
:1001000000000000895E0008895E0008895E000822
:1001100000000000000000000000000000000000DF
:10012000895E0008895E0008895E0008895E000813
:10013000895E0008000000000000000000000000D0
:10014000000000000000000000000000895E0008C0
:10015000895E0008895E0008895E0008895E0008E3
:10016000895E0008895E00080000000000000000B1
:10017000000000000000000000000000000000007F
:1001800000000000895E0008000000000000000080
:08019000895E0008895E000889
:1001A00010B5054C237833B9044B13B10448AFF3B1
:1001B00000800123237010BD080200200000000011
:1001C0004C4A010808B5034B1BB103490348AFF380
:1001D000008008BD000000000C0200204C4A01080D
:1001E000034613F8012B002AFBD1181A0138704777
:1001F00001F0FF01102A2BDB10F0070F08D010F8D8
:10020000013B013A8B422DD010F0070F42B3F6D1DB
:10021000F0B441EA012141EA014122F007047FF0F4
:1002200000070023F0E80256083C85EA010586EA4B
:10023000010685FA47F5A3FA87F586FA47F6A5FA87
:1002400087F68EB9EED1F0BC01F0FF0102F0070293
:1002500032B110F8013B013A83EA010313B1F8D13E
:100260000020704701387047002D06BF354603381F
:10027000073815F0010F07D1013015F4807F02BF58
:10028000013015F4C03F0130F0BC0138704700BFA9
:1002900081F0004102E000BF83F0004330B54FEA37
:1002A00041044FEA430594EA050F08BF90EA020FA4
:1002B0001FBF54EA000C55EA020C7FEA645C7FEA37
:1002C000655C00F0E2804FEA5454D4EB5555B8BF5A
:1002D0006D420CDD2C4480EA020281EA030382EACB
:1002E000000083EA010180EA020281EA0303362D5D
:1002F00088BF30BD11F0004F4FEA01314FF4801C30
:100300004CEA113102D0404261EB410113F0004F41
:100310004FEA03334CEA133302D0524263EB4303F8
:1003200094EA050F00F0A780A4F10104D5F1200E96
:100330000DDB02FA0EFC22FA05F2801841F10001F1
:1003400003FA0EF2801843FA05F359410EE0A5F1C5
:1003500020050EF1200E012A03FA0EFC28BF4CF0F6
:10036000020C43FA05F3C01851EBE37101F00045AC
:1003700007D54FF0000EDCF1000C7EEB00006EEBB9
:100380000101B1F5801F1BD3B1F5001F0CD3490843
:100390005FEA30004FEA3C0C04F101044FEA44529A
:1003A00012F5800F80F09A80BCF1004F08BF5FEA21
:1003B000500C50F1000041EB045141EA050130BD01
:1003C0005FEA4C0C404141EB0101013C28BFB1F513
:1003D000801FE9D291F0000F04BF01460020B1FA5E
:1003E00081F308BF2033A3F10B03B3F120020CDA31
:1003F0000C3208DD02F1140CC2F10C0201FA0CF00F
:1004000021FA02F10CE002F11402D8BFC2F1200C73
:1004100001FA02F120FA0CFCDCBF41EA0C01904029
:10042000E41AA2BF01EB0451294330BD6FEA040472
:100430001F3C1CDA0C340EDC04F11404C4F120025D
:1004400020FA04F001FA02F340EA030021FA04F36F
:1004500045EA030130BDC4F10C04C4F1200220FAC6
:1004600002F001FA04F340EA0300294630BD21FA04
:1004700004F0294630BD94F0000F83F4801306BFCA
:1004800081F480110134013D4EE77FEA645C18BFBE
:100490007FEA655C29D094EA050F08BF90EA020F55
:1004A00005D054EA000C04BF1946104630BD91EA4D
:1004B000030F1EBF0021002030BD5FEA545C05D150
:1004C0004000494128BF41F0004130BD14F580048F
:1004D0003CBF01F5801130BD01F0004545F0FE4103
:1004E00041F470014FF0000030BD7FEA645C1ABF38
:1004F000194610467FEA655C1CBF0B46024650EA6F
:10050000013406BF52EA033591EA030F41F400219A
:1005100030BD00BF90F0000F04BF0021704730B520
:100520004FF4806404F132044FF000054FF00001F5
:1005300050E700BF90F0000F04BF0021704730B5B6
:100540004FF4806404F1320410F0004548BF40428B
:100550004FF000013EE700BF42004FEAE2014FEAE0
:1005600031014FEA02701FBF12F07F4393F07F4FBB
:1005700081F06051704732F07F4208BF704793F0BE
:100580007F4F04BF41F40021704730B54FF46074D1
:1005900001F0004521F000411CE700BF50EA0102D4
:1005A00008BF704730B54FF000050AE050EA01027D
:1005B00008BF704730B511F0004502D5404261EBED
:1005C00041014FF4806404F132045FEA915C3FF42E
:1005D000D8AE4FF003025FEADC0C18BF03325FEACB
:1005E000DC0C18BF033202EBDC02C2F1200300FA7C
:1005F00003FC20FA02F001FA03FE40EA0E0021FAA1
:1006000002F11444BDE600BF70B54FF0FF0C4CF48E
:10061000E06C1CEA11541DBF1CEA135594EA0C0F40
:1006200095EA0C0F00F0DEF82C4481EA030621EA7B
:100630004C5123EA4C5350EA013518BF52EA0335B6
:1006400041F4801143F4801338D0A0FB02CE4FF068
:100650000005E1FB02E506F00042E0FB03E54FF098
:100660000006E1FB03569CF0000F18BF4EF0010E90
:10067000A4F1FF04B6F5007F64F5407404D25FEA8C
:100680004E0E6D4146EB060642EAC62141EA55513F
:100690004FEAC52040EA5E504FEACE2EB4F1FD0C81
:1006A00088BFBCF5E06F1ED8BEF1004F08BF5FEAFF
:1006B000500E50F1000041EB045170BD06F00046B1
:1006C00046EA010140EA020081EA0301B4EB5C045E
:1006D000C2BFD4EB0C0541EA045170BD41F4801156
:1006E0004FF0000E013C00F3AB8014F1360FDEBF7B
:1006F000002001F0004170BDC4F10004203C35DA57
:100700000C341BDC04F11404C4F1200500FA05F3D9
:1007100020FA04F001FA05F240EA020001F000427A
:1007200021F0004110EBD37021FA04F642EB0601F0
:100730005EEA430E08BF20EAD37070BDC4F10C041A
:10074000C4F1200500FA04F320FA05F001FA04F2DE
:1007500040EA020001F0004110EBD37041F10001CA
:100760005EEA430E08BF20EAD37070BDC4F12005D5
:1007700000FA05F24EEA020E20FA04F301FA05F23D
:1007800043EA020321FA04F001F0004121FA04F2E5
:1007900020EA020000EBD3705EEA430E08BF20EAB5
:1007A000D37070BD94F0000F0FD101F000464000EF
:1007B00041EB010111F4801F08BF013CF7D041EA71
:1007C000060195F0000F18BF704703F00046520075
:1007D00043EB030313F4801F08BF013DF7D043EA46
:1007E0000603704794EA0C0F0CEA135518BF95EAFC
:1007F0000C0F0CD050EA410618BF52EA4306D1D183
:1008000081EA030101F000414FF0000070BD50EAA1
:10081000410606BF1046194652EA430619D094EA2B
:100820000C0F02D150EA013613D195EA0C0F05D115
:1008300052EA03361CBF104619460AD181EA030169
:1008400001F0004141F0FE4141F470014FF0000021
:1008500070BD41F0FE4141F4780170BD70B54FF0BC
:10086000FF0C4CF4E06C1CEA11541DBF1CEA13553C
:1008700094EA0C0F95EA0C0F00F0A7F8A4EB05041E
:1008800081EA030E52EA03354FEA013100F0888015
:100890004FEA03334FF0805545EA131343EA1263DE
:1008A0004FEA022245EA111545EA10654FEA002693
:1008B0000EF000419D4208BF964244F1FD0404F54C
:1008C000407402D25B084FEA3202B61A65EB0305A8
:1008D0005B084FEA32024FF480104FF4002CB6EB65
:1008E000020E75EB030E22BFB61A754640EA0C00E5
:1008F0005B084FEA3202B6EB020E75EB030E22BF25
:10090000B61A754640EA5C005B084FEA3202B6EB65
:10091000020E75EB030E22BFB61A754640EA9C0024
:100920005B084FEA3202B6EB020E75EB030E22BFF4
:10093000B61A754640EADC0055EA060E18D04FEAB2
:10094000051545EA16754FEA06164FEAC30343EA52
:1009500052734FEAC2025FEA1C1CC0D111F4801F1F
:100960000BD141EA00014FF000004FF0004CB6E718
:1009700011F4801F04BF01430020B4F1FD0C88BFB7
:10098000BCF5E06F3FF6AFAEB5EB030C04BFB6EBC2
:10099000020C5FEA500C50F1000041EB045170BDB5
:1009A0000EF0004E4EEA113114EB5C04C2BFD4EBE2
:1009B0000C0541EA045170BD41F480114FF0000E66
:1009C000013C90E645EA060E8DE60CEA135594EAE2
:1009D0000C0F08BF95EA0C0F3FF43BAF94EA0C0FE5
:1009E0000AD150EA01347FF434AF95EA0C0F7FF45A
:1009F00025AF104619462CE795EA0C0F06D152EAAE
:100A000003353FF4FDAE1046194622E750EA410691
:100A100018BF52EA43067FF4C5AE50EA41047FF4A2
:100A20000DAF52EA43057FF4EBAE12E74FF0FF3C07
:100A300006E000BF4FF0010C02E000BF4FF0010CD8
:100A40004DF804CD4FEA410C7FEA6C5C4FEA430C51
:100A500018BF7FEA6C5C1BD001B050EA410C0CBFA0
:100A600052EA430C91EA030F02BF90EA020F002002
:100A7000704710F1000F91EA030F58BF994208BF69
:100A800090422CBFD8176FEAE37040F00100704726
:100A90004FEA410C7FEA6C5C02D150EA013C07D17D
:100AA0004FEA430C7FEA6C5CD6D152EA033CD3D0C8
:100AB0005DF8040B704700BF8446104662468C46C2
:100AC0001946634600E000BF01B5FFF7B7FF0028F5
:100AD00048BF10F1000F01BD4DF808EDFFF7F4FF1E
:100AE0000CBF012000205DF808FB00BF4DF808EDA9
:100AF000FFF7EAFF34BF012000205DF808FB00BFCC
:100B00004DF808EDFFF7E0FF94BF012000205DF8ED
:100B100008FB00BF4DF808EDFFF7CEFF94BF0120A2
:100B200000205DF808FB00BF4DF808EDFFF7C4FF9B
:100B300034BF012000205DF808FB00BF4FEA410CE4
:100B40007FEA6C5C02D150EA013C0AD14FEA430CC7
:100B50007FEA6C5C02D152EA033C02D14FF0000004
:100B600070474FF0010070474FEA410212F5001242
:100B700015D211D56FF47873B3EB625212D94FEAE4
:100B8000C12343F0004343EA505311F0004F23FACE
:100B900002F018BF404270474FF00000704750EA23
:100BA000013005D111F0004008BF6FF000407047E0
:100BB0004FF00000704700BF4A0011D212F500123A
:100BC00011D20DD56FF47873B3EB62520ED44FEAA5
:100BD000C12343F0004343EA505323FA02F0704725
:100BE0004FF00000704750EA013002D14FF0FF3063
:100BF00070474FF0000070474FEA4102B2F1E04306
:100C000024BFB3F5001CDCF1FE5C0DD901F0004CF3
:100C10004FEAC0024CEA5070B2F1004F40EB830043
:100C200008BF20F00100704711F0804F21D113F16F
:100C30003872BCBF01F00040704741F480114FEAA8
:100C40005252C2F11802C2F1200C10FA0CF320FA31
:100C500002F018BF40F001004FEAC1234FEAD3234E
:100C600003FA0CFC40EA0C0023FA02F34FEA4303B8
:100C7000CCE77FEA625307D150EA01331EBF4FF041
:100C8000FE4040F44000704701F0004040F0FE405C
:100C900040F40000704700BF7BB972B90029BEBFA5
:100CA00000204FF0004106E008BF00281CBF6FF095
:100CB00000414FF0FF3000F0F5B9ADF1080C6DE9DF
:100CC00004CE002909DB002B1ADB00F083F8DDF8E5
:100CD00004E0DDE9022304B07047404261EB4101CA
:100CE000002B1BDB00F076F8DDF804E0DDE90223E1
:100CF00004B0404261EB4101524263EB4303704751
:100D0000524263EB430300F065F8DDF804E0DDE9EF
:100D1000022304B0404261EB41017047524263EB51
:100D2000430300F057F8DDF804E0DDE9022304B0E6
:100D3000524263EB4303704753B94AB9002908BFD5
:100D400000281CBF4FF0FF314FF0FF3000F0AAB970
:100D5000ADF1080C6DE904CE00F03CF8DDF804E0DC
:100D6000DDE9022304B0704738B5002200230446B1
:100D70000D46FFF7BBFE28B920462946BDE838409E
:100D800000F00AB8204605F1004100F005F84042A5
:100D900061EB410138BD00BFD0B50C4B00220646C7
:100DA0000F46FFF731FCFFF707FF0446FFF7B2FBE2
:100DB000074B0022FFF728FC02460B463046394617
:100DC000FFF76AFAFFF7F8FE2146D0BD0000F03DBC
:100DD0000000F0412DE9F047089D04468E46002BA7
:100DE0004DD18A42944669D9B2FA82F252B101FADF
:100DF00002F3C2F1200120FA01F10CFA02FC41EAEF
:100E0000030E94404FEA1C48210CBEFBF8F61FFA73
:100E10008CF708FB16E341EA034306FB07F199420E
:100E20000AD91CEB030306F1FF3080F01F819942C1
:100E300040F21C81023E63445B1AA4B2B3FBF8F09B
:100E400008FB103344EA034400FB07F7A7420AD922
:100E50001CEB040400F1FF3380F00A81A74240F24A
:100E600007816444023840EA0640E41B00261DB1B5
:100E7000D4400023C5E900433146BDE8F0878B42EA
:100E800009D9002D00F0EF800026C5E900013046A9
:100E90003146BDE8F087B3FA83F6002E4AD18B4283
:100EA00002D3824200F2F980841A61EB030301202D
:100EB0009E46002DE0D0C5E9004EDDE702B9FFDE19
:100EC000B2FA82F2002A40F09280A1EB0C014FEAC4
:100ED0001C471FFA8CFE0126200CB1FBF7F307FB21
:100EE000131140EA01410EFB03F0884208D91CEBC4
:100EF000010103F1FF3802D2884200F2CB80434661
:100F0000091AA4B2B1FBF7F007FB101144EA01443F
:100F10000EFB00FEA64508D91CEB040400F1FF31CE
:100F200002D2A64500F2BB800846A4EB0E0440EABC
:100F300003409CE7C6F12007B34022FA07FC4CEAC5
:100F4000030C20FA07F401FA06F31C43F9404FEAB8
:100F50001C4900FA06F3B1FBF9F8200C1FFA8CFECD
:100F600009FB181140EA014108FB0EF0884202FA21
:100F700006F20BD91CEB010108F1FF3A80F08880E2
:100F8000884240F28580A8F102086144091AA4B29F
:100F9000B1FBF9F009FB101144EA014100FB0EFE20
:100FA0008E4508D91CEB010100F1FF346CD28E454F
:100FB0006AD90238614440EA0840A0FB0294A1EBE0
:100FC0000E01A142C846A64656D353D05DB1B3EB3D
:100FD000080261EB0E0101FA07F722FA06F3F1406D
:100FE0001F43C5E9007100263146BDE8F087C2F114
:100FF0002003D8400CFA02FC21FA03F3914001438C
:101000004FEA1C471FFA8CFEB3FBF7F007FB1036C4
:101010000B0C43EA064300FB0EF69E4204FA02F470
:1010200008D91CEB030300F1FF382FD29E422DD9C3
:10103000023863449B1B89B2B3FBF7F607FB1633F8
:1010400041EA034106FB0EF38B4208D91CEB010178
:1010500006F1FF3816D28B4214D9023E6144C91AF8
:1010600046EA004638E72E46284605E70646E3E608
:101070001846F8E64B45A9D2B9EB020864EB0C0E12
:101080000138A3E74646EAE7204694E74046D1E721
:10109000D0467BE7023B614432E7304609E76444CF
:1010A000023842E7704700BF80B58CB004AF4FF004
:1010B000FF330293192301933B46009301238822B7
:1010C000EC21574805F0ECFF3B4619334FF0FF3257
:1010D00002920722019200930123E122EC21504861
:1010E00005F0DEFF7B781B021AB23B781BB213437C
:1010F0001BB29AB24B4B1A80FB781B021AB2BB7818
:101100001BB213431AB2484B1A807B791B021AB2E6
:101110003B791BB213431AB2444B1A80FB791B0272
:101120001AB27B791BB213431BB29AB2404B1A809E
:101130007B7A1B021AB2BB791BB213431AB23D4B26
:101140001A80FB7A1B021AB2BB7A1BB213431AB283
:10115000394B1A807B7B1B021AB23B7B1BB21343B9
:101160001AB2364B1A80FB7B1B021AB2BB7B1BB236
:1011700013431AB2324B1A807B7C1B021AB23B7C9F
:101180001BB213431AB22F4B1A80FB7C1B021AB2FC
:10119000BB7C1BB213431AB22B4B1A807B7D1B0204
:1011A0001AB23B7D1BB213431AB2284B1A80FB7D47
:1011B0001B021AB2BB7D1BB213431AB2244B1A8016
:1011C0003B7E9AB2234B1A80BB7E1B021AB27B7EF7
:1011D0001BB213431AB2204B1A80FB7E9AB21F4BEC
:1011E0001A803B7F1B011AB27B7F1BB203F00F03F7
:1011F0001BB213431AB21A4B1A80BB7F1B011AB2DF
:101200007B7F1B09DBB21BB213431AB2154B1A804A
:10121000FB7F1AB2144B1A8000BF2037BD4680BD39
:10122000BC020020340200203C0200203E020020CC
:10123000360200204002002042020020440200202A
:1012400046020020480200204A0200204C020020F2
:101250004E02002038020020500200203A020020F6
:1012600052020020540200205602002090B589B09E
:1012700004AF0446084611461A462346FB7103464E
:10128000BB710B467B7113463B71FFF70DFF0023CB
:10129000FB730023BB73B623FB734FF47A73029383
:1012A0000123019307F10F0300930123E022EC21B6
:1012B000584805F0FBFD0346002B02D04FF0FF33EA
:1012C000A3E0642004F024FE7B79FB734FF47A736F
:1012D00002930123019307F10F0300930123F222EC
:1012E000EC214C4805F0E2FD0346002B02D04FF004
:1012F000FF338AE0642004F00BFE4FF47A7302930C
:101300000123019307F10E0300930123F222EC2144
:10131000404805F0C5FEBA7BFB7B9A4202D04FF0F5
:10132000FF3372E097F820305B015AB297F824300F
:101330009B005BB213435BB2DBB2FB734FF47A7377
:1013400002930123019307F10F0300930123F52278
:10135000EC21304805F0AAFD0346002B02D04FF0E7
:10136000FF3352E0642004F0D3FD4FF47A7302930C
:101370000123019307F10E0300930123F522EC21D1
:10138000244805F08DFEBA7BFB7B9A4202D04FF0D9
:10139000FF333AE0FB795B015AB2BB799B005BB249
:1013A00013435AB297F9043013435BB2DBB2FB73B9
:1013B0004FF47A7302930123019307F10F03009313
:1013C0000123F422EC21134805F070FD0346002BA5
:1013D00002D04FF0FF3318E0642004F099FD4FF481
:1013E0007A7302930123019307F10E030093012303
:1013F000F422EC21074805F053FEBA7BFB7B9A42AE
:1014000002D04FF0FF3300E0002318461437BD46EA
:1014100090BD00BFBC02002080B586B004AF4FF481
:101420007A730293012301931E4B00930123D02270
:10143000EC211D4805F034FE1A4B1B78602B2AD195
:101440004FF0FF330293082301933B46009301239F
:10145000F722EC21144805F023FE3B781A037B7831
:101460001B011343BA781209D2B213430F4A136017
:10147000FB781A033B791B0113437A791209D2B224
:1014800013430B4A1360BB791B02FA791343094AD1
:101490001360002301E04FF0FF3318460837BD46C4
:1014A00080BD00BF24020020BC0200202C020020CE
:1014B000280200203002002080B487B000AF78609E
:1014C0007B68DA10194B1B885B00D31A184AB2F9F3
:1014D000002002FB03F3DB127B617B681B11134AC4
:1014E00012889B1A7A68121110490988521A02FB55
:1014F00003F31B130F4AB2F9002002FB03F39B1303
:101500003B617A693B6913440B4A13600A4B1A68C2
:1015100013469B00134480331B12FB60FB68184684
:101520001C37BD465DF8047B704700BF34020020C5
:101530003C0200203E020020580200202DE9B04F5E
:10154000CAB000AFC7F80C01AF4B1B68DA171C46D6
:101550001546B4F5FA3A45F1FF3BC7E948ABD7F871
:101560002421D7F8203103FB02F1D7F82421D7F842
:10157000203102FB03F3CA18D7F82031A3FB0389FB
:1015800002EB09039946A14BB3F900301BB2DA17FD
:10159000C7F8B830C7F8BC20D7E92E01034603FBD3
:1015A00009F20B4608FB03F313440246A8FB0212A0
:1015B000C7F8C4200A46C7F8C020D7F8C42013448F
:1015C000C7F8C430D7E93034C7E94634C7E94634F0
:1015D0008F4BB3F900301BB2DA17C7F8B030C7F839
:1015E000B420D7F82031D7E92C452A4602FB03F274
:1015F000D7F82431214601FB03F31A44D7F82031F0
:101600002146A3FB0113C7F804310B46C7F800318C
:10161000D7F80431D318C7F804314FF000004FF069
:101620000001D7E940452B465904234641EAD3310E
:1016300023465804D7E9462314183C644B417B6485
:10164000D7E91034C7E94634724BB3F900301BB206
:10165000DA17C7F8A830C7F8AC204FF000004FF0F9
:101660000001D7F8A830D9000020D7E94623141884
:10167000BC634B41FB63D7E90E34C7E94634D7F866
:101680002421D7F8203103FB02F1D7F82421D7F821
:10169000203102FB03F3CA18D7F82031A3FB031350
:1016A000C7F8FC300B46C7F8F830D7F8FC30D31831
:1016B000C7F8FC30584BB3F900301BB2DA17C7F843
:1016C000A030C7F8A420D7E93E452B46D7E92889A2
:1016D000424602FB03F24B46214601FB03F313444F
:1016E00022464146A2FB0112C7F8F4200A46C7F879
:1016F000F020D7F8F4201344C7F8F4304FF000007E
:101700004FF00001D7E93C452346180A2B4640EA32
:1017100003602B461912414BB3F900301BB2DA17A4
:10172000C7F89830C7F89C20D7F82031D7E9268928
:101730004A4602FB03F2D7F82431444604FB03F384
:101740001A44D7F820314446A3FB0443C7F8EC30D1
:101750002346C7F8E830D7F8EC30D318C7F8EC3098
:101760004FF000024FF00003D7E93A894C462303BB
:10177000444643EA14534446220384183C6341EB35
:1017800003037B63D7E90C34C7E94834D7E948231E
:1017900003F50041C7F89410C7F89020204B1B8830
:1017A0009BB20022C7F88830C7F88C20D7E92445BF
:1017B0002B46D7E92289424602FB03F24B462146DB
:1017C00001FB03F3134422464146A2FB0112C7F872
:1017D000E4200A46C7F8E020D7F8E4201344C7F80D
:1017E000E4304FF000024FF00003D7E938452946B6
:1017F0004A102946CB17C7E94823D7E948231343A2
:1018000010D1002354E100BF5802002048020020FC
:101810004602002044020020420200204002002034
:1018200036020020D7F80C31C3F58013DA17BB62FB
:10183000FA62D7E90A34C7E94434D7F810315B10AB
:10184000C7F88430D7F81031DB07C7F88030D7E904
:101850004623D7E920452146891AB967294661EB15
:101860000303FB67D7E91E4522462B4691183962D0
:101870005B417B62D7E9082321465118B9612946AB
:101880004B41FB614FF000024FF00003D7E906899E
:1018900049468B01414643EA916341468A014146EC
:1018A00089183961494643EB010179614FF0000223
:1018B0004FF00003D7E9048949468B00414643EACB
:1018C000917341468A0010461946034622469B18EA
:1018D000BB600B462A4642EB0303FB604FF000025D
:1018E0004FF00003D7E9028949468B00414643EA9D
:1018F000917341468A0010461946034622469B18BA
:101900003B672B460A4642EB03037B67D7E9482334
:10191000D7E91C01FFF7C0F902460B46C7E944238B
:10192000664BB3F900301BB2DA17BB66FA66D7E92B
:1019300044234FF000004FF00001500B40EAC34039
:101940005913D7E91A452B4600FB03F2234603FB44
:1019500001F313442246A2FB0012C7F8DC200A461A
:10196000C7F8D820D7F8DC201344C7F8DC30D7E913
:1019700044234FF000004FF00001500B40EAC340F9
:101980005913D7E936452B4600FB03F2234603FBE8
:1019900001F313442246A2FB0012C7F8D4200A46E2
:1019A000C7F8D020D7F8D4201344C7F8D4304FF06C
:1019B00000024FF00003D7E9344521464A0E29467C
:1019C00042EAC11229464B16C7E948233C4BB3F9FA
:1019D00000301BB2DA173B667A66D7F81031D7E9C8
:1019E00018452A4602FB03F2D7F81431214601FBC1
:1019F00003F31344D7F810212146A2FB0112C7F8C4
:101A0000CC200A46C7F8C820D7F8CC201344C7F822
:101A1000CC304FF000024FF00003D7E932452146A9
:101A2000CA0C294642EA41322946CB14C7E946236B
:101A3000D7E94401D7E948238418BC6541EB030387
:101A4000FB65D7E94623D7E916452146891839654C
:101A5000294643EB010179654FF000004FF000018A
:101A6000D7E914452346180A2B4640EA03602B4663
:101A70001912144BB3F900301BB2DA17BB64FA64C5
:101A80004FF000024FF00003D7E912894C462301C2
:101A9000444643EA14734446220184183C6041EBF7
:101AA00003037B60D7E90034C7E94434D7F8103129
:101AB000184607F59477BD46BDE8B08F4E0200206A
:101AC0004C0200204A02002080B485B000AF78604C
:101AD0002C4B1B68A3F59633FB607B689A032A4B5B
:101AE000B3F900301B05D21A284BB3F90030194660
:101AF000FB6801FB03F3D31A03F58043DB13244A8D
:101B0000B2F900201146FA6801FB02F29212214953
:101B100009880846F96800FB01F1C91201F5004186
:101B200001FB02F2921202F500121B49B1F90010FA
:101B300001FB02F202F50052921302FB03F3FB6079
:101B4000FB68DB13FA68D21302FB03F3DB11134AC1
:101B5000128802FB03F31B11FA68D31AFB60FB68BF
:101B600023EAE373FB60FB68B3F1C85FA8BF4FF0E3
:101B7000C853FB60FB681B1318461437BD465DF85D
:101B8000047B7047580200205202002054020020BB
:101B9000560200203A0200205002002038020020A5
:101BA00080B500AFFFF738FC0346002B63D1394BFB
:101BB0001B68B3F5000F04D1374B4FF000021A60D9
:101BC00016E0344B1B681846FFF776FC03461846B0
:101BD000FEF7B0FC4FF00002304BFEF73FFE02462E
:101BE0000B4610461946FFF707F803462A4A1360CA
:101BF0002B4B1B68B3F5000F04D12A4B4FF00002AA
:101C00001A6016E0264B1B681846FFF797FC034640
:101C10001846FEF77FFC4FF00002234BFEF71EFE36
:101C200002460B4610461946FEF7E6FF03461D4ADC
:101C300013601E4B1B68B3F5004F04D11C4B4FF0D3
:101C400000021A6023E0194B1B681846FFF73CFF9F
:101C500003461846FEF75EFC4FF00002154BFEF7F8
:101C6000FDFD02460B4610461946FEF7C5FF03462A
:101C70000F4A13600BE00E4B4FF000021A600C4B42
:101C80001B68084A1360074B1B68034A136000BFB8
:101C900080BD00BF28020020D80900200000594064
:101CA0002C020020DC0900200000704030020020DF
:101CB000E00900200000904080B500AF0022012123
:101CC000034804F059FC012004F022F900BF80BD54
:101CD0000004024080B500AF01220121034804F056
:101CE0004BFC012004F014F900BF80BD0004024049
:101CF00080B582B000AF0346FB7100BF084B1B6884
:101D00009B6803F00203022BF8D1F91D6423012222
:101D1000034806F0D8FE00BF0837BD4680BD00BFAF
:101D20006403002080B582B000AF78600B467B80F2
:101D300000BF084B1B689B6803F00203022BF8D11D
:101D40007A8864237968034806F0BDFE00BF08372F
:101D5000BD4680BD6403002080B584B002AFFF2380
:101D6000FB7100BF094B1B689B6803F00203022B49
:101D7000F8D1BA1DF91D642300930123034806F02E
:101D8000DEFFBB7918460837BD4680BD64030020DE
:101D900080B582B000AF7860FFF7DEFF03461A46D9
:101DA0007B681A7000BF0837BD4680BD80B582B021
:101DB00000AF0A4B4FF4FA721A80FFF7CDFF0346CB
:101DC000FB71FB79FF2B04D0044B1B889BB2002BCB
:101DD000F3D1FB7918460837BD4680BDAA2E0020F6
:101DE00080B584B000AF41F6FF73FB60FFF772FF70
:101DF0000023BB6005E0FF20FFF77AFFBB680133DB
:101E0000BB60BB68092BF6DDFFF756FF40233B7034
:101E100000237B700023BB700023FB7000233B7109
:101E200095237B713B4606211846FFF77BFF02E0B6
:101E3000FB68013BFB60FFF78FFF0346012B02D0DD
:101E4000FB68002BF4D1FFF745FFFF20FFF750FFA1
:101E5000034B01221A7000BF1037BD4680BD00BF82
:101E60005D02002080B400AF034B00221A7000BF57
:101E7000BD465DF8047B70475D02002080B400AF72
:101E8000034B1B781846BD465DF8047B704700BFC6
:101E90005D02002080B584B000AF78603960144BDB
:101EA000C8221A80FFF758FF0346FB73FB7BFF2B0A
:101EB00004D10F4B1B889BB2002BF3D1FB7BFE2B75
:101EC00001D000230FE07B685A1C7A601846FFF7A8
:101ED0005FFF3B685A1E3A60002BF4D1FFF73CFFCE
:101EE000FFF73AFF012318461037BD4680BD00BFFB
:101EF000A82E002080B584B000AF78600B46FB7040
:101F00000023BB73FFF752FF0346FF2B01D00023D2
:101F10002FE0FB781846FFF7EBFEFB78FD2B20D077
:101F20004FF400717868FFF7FDFEFFF715FFFFF72C
:101F300013FF0BE0FFF710FF0346FB73FB7B03F07F
:101F40001F03052B06D0BB7B0133BB73BB7B402B30
:101F5000F0D900E000BF00BFFFF7FEFE0346002BF4
:101F6000FAD0FB7B03F01F03052B01D1012300E016
:101F7000002318461037BD4680BD80B584B000AF41
:101F800003463960FB71FFF711FF0346FF2B01D0B9
:101F9000FF2342E0FB791846FFF7AAFE3B681B0EC1
:101FA000DBB21846FFF7A4FE3B681B0CDBB21846F9
:101FB000FFF79EFE3B681B0ADBB21846FFF798FE50
:101FC0003B68DBB21846FFF793FEFB79402B02D14A
:101FD0009523FB7307E0FB79482B02D18723FB7322
:101FE00001E00123FB73FB7B1846FFF781FEFB79C1
:101FF0004C2B01D1FFF7B0FE0A23BB73FFF7ACFEF9
:1020000003467B7397F90D30002B05DABB7B013B50
:10201000BB73BB7B002BF1D17B7B18461037BD46D1
:1020200080BD000090B585B000AF0346FB71FB7921
:10203000002B01D00123D6E06D4B1B78DBB203F0FF
:102040000203002B03D06A4B1B78DBB2CBE0FFF717
:10205000C7FEFFF731FE0023BB7300214020FFF7CE
:102060008CFF0346012B40F0A680624B4FF47A723E
:102070001A804FF4D5714820FFF77FFF0346012BEC
:1020800058D10023FB730CE0FC7BFFF765FE034691
:102090001A4604F110033B4403F8082CFB7B013380
:1020A000FB73FB7B032BEFD9BB7A012B40F08380C2
:1020B000FB7AAA2B7FD100217720FFF75EFF034632
:1020C000012B07D84FF080416920FFF756FF0346E8
:1020D000002B05D0474B1B889BB2002BEBD100E0B7
:1020E00000BF444B1B889BB2002B64D000217A2098
:1020F000FFF743FF0346002B5DD10023FB730CE089
:10210000FC7BFFF729FE03461A4604F110033B440B
:1021100003F8082CFB7B0133FB73FB7B032BEFD90C
:102120003B7A03F04003002B01D00C2300E0042392
:10213000BB7340E000217720FFF71FFF0346012B10
:1021400008D800216920FFF718FF0346012B01D8AA
:10215000022300E00123BB73BB7B022B0ED10021C5
:102160007720FFF70AFF0346012B0ED800216920D4
:10217000FFF703FF0346002B07D10DE000214120AC
:10218000FFF7FBFE0346002B05D01A4B1B889BB2C2
:10219000002BE1D100E000BF164B1B889BB2002B47
:1021A00007D04FF400715020FFF7E7FE0346002BE5
:1021B00001D00023BB73104ABB7B1370FFF78AFD6D
:1021C000FFF7CAFDBB7B002B08D0094B1B78DBB2A5
:1021D00023F00103DAB2064B1A7001E0FFF742FE6A
:1021E000034B1B78DBB218461437BD4690BD00BFC9
:1021F00000000020A82E00205C02002080B483B0E4
:1022000000AF0346FB71FB79002B01D0012302E0F4
:10221000044B1B78DBB218460C37BD465DF8047BD7
:10222000704700BF0000002080B584B000AFB960E7
:102230007A603B600346FB73FB7B002B02D13B685B
:10224000002B01D1042351E02A4B1B78DBB203F0B1
:102250000103002B01D0032348E0274B1B7803F038
:102260000403002B02D17B685B027B60FFF724FD37
:102270003B68012B11D179685120FFF77EFE0346A0
:10228000002B29D14FF40071B868FFF703FE034615
:10229000002B21D000233B601EE079685220FFF71D
:1022A0006CFE0346002B17D14FF40071B868FFF79E
:1022B000F1FD0346002B0AD0BB6803F50073BB6039
:1022C0003B68013B3B603B68002BEDD100E000BF69
:1022D00000214C20FFF751FEFFF7FCFCFFF73CFD0F
:1022E0003B68002B14BF01230023DBB218461037D4
:1022F000BD4680BD000000205C02002080B584B097
:1023000000AFB9607A603B600346FB73FB7B002B38
:1023100002D13B68002B01D104236BE0374B1B78C3
:10232000DBB203F00103002B01D0032362E0334B47
:102330001B78DBB203F00403002B01D0022359E029
:102340002F4B1B7803F00403002B02D17B685B0248
:102350007B60FFF7B1FC3B68012B10D179685820F6
:10236000FFF70BFE0346002B3AD1FE21B868FFF7BA
:10237000C1FD0346002B33D000233B6030E0204BEF
:102380001B7803F00203002B07D000217720FFF712
:10239000F4FD39685720FFF7F0FD79685920FFF701
:1023A000ECFD0346002B1BD1FC21B868FFF7A2FD12
:1023B0000346002B0AD0BB6803F50073BB603B6883
:1023C000013B3B603B68002BEED100E000BFFD21EC
:1023D0000020FFF78FFD0346002B01D101233B6056
:1023E000FFF778FCFFF7B8FC3B68002B14BF012314
:1023F0000023DBB218461037BD4680BD0000002028
:102400005C02002090B58BB000AF03463A60FB71D0
:102410000B46BB713B683B62FB79002B01D0042368
:1024200015E1012387F82730BB79052B24D13B6ABE
:102430001B78022B12D0022B1ADC002B02D0012BAE
:1024400006D015E0FFF70EFD002387F82730FCE0EB
:10245000FFF7C6FC002387F82730F6E03B6A5C1CD8
:10246000FFF70CFD03462370002387F82730ECE0CC
:10247000042387F82730E8E0774B1B78DBB203F0C2
:102480000103002B01D00323E1E0FFF715FCBB792A
:102490000D2B00F2CB8001A252F823F09725000803
:1024A000D5240008872500082D2600082D260008C1
:1024B0002D2600082D2600082D2600082D260008B0
:1024C0002D2600082D260008A9250008CD25000886
:1024D000F125000800214920FFF74FFD0346002B9E
:1024E00040F0A88007F10C0310211846FFF7D2FC3A
:1024F0000346002B00F09E803B7B9B09DBB2012B47
:102500000ED17B7D9AB23B7D9BB21B029BB21344E2
:102510009BB20133FB83FB8B9A023B681A602EE06F
:102520007B7C03F00F03DAB2BB7DDB09DBB2134423
:10253000DAB27B7D5B00DBB203F00603DBB213444F
:10254000DBB2023387F826303B7D9B09DBB29AB2BF
:10255000FB7C9BB29B009BB213449AB2BB7C9B0258
:102560009BB203F440639BB213449BB20133FB83E1
:10257000FA8B97F82630093B9A403B681A60002393
:1025800087F8273056E03B684FF400721A8000232A
:1025900087F8273055E0FFF709FC0346FF2B4BD1A6
:1025A000002387F8273047E000214920FFF7E5FCAA
:1025B0000346002B42D11021386AFFF76BFC03461B
:1025C000002B3BD0002387F8273037E000214A203A
:1025D000FFF7D3FC0346002B32D11021386AFFF7F6
:1025E00059FC0346002B2BD0002387F8273027E027
:1025F00000217A20FFF7C1FC0346002B16D10023EF
:1026000087F826300BE03C6A631C3B62FFF7A4FBB3
:102610000346237097F82630013387F8263097F861
:102620002630032BEFD9002387F82730042387F8BF
:10263000273006E000BF04E000BF02E000BF00E07A
:1026400000BFFFF747FBFFF787FB97F827301846D7
:102650002C37BD4690BD00BF0000002080B485B07F
:1026600000AF786039600023FB603B68002B06D127
:102670007B6871333B6002E03B6801333B603B6841
:10268000002B03D03B681B78202BF5D03B681B78D0
:102690002D2B04D13B6801333B60012300E0002374
:1026A000FB720DE0FA6813469B0013445B001A4668
:1026B0003B681B78303B1344FB603B6801333B6055
:1026C0003B68002B07D03B681B782F2B03D93B6856
:1026D0001B78392BE6D9FB7A002B02D0FB685B42D2
:1026E00000E0FB6818461437BD465DF8047B704770
:1026F00080B584B000AF786039603B68002B06D1AC
:102700007B6871333B6002E03B6801333B603B68B0
:10271000002B03D03B681B78202BF5D000213868B4
:102720000DF010F887ED020BD7E9022343EC172BCD
:10273000B0EE470AF0EE670A1037BD4680BD0000D4
:1027400080B588B000AF786000217868FFF7D0FFCF
:1027500087ED060BD7E90601FEF706FA03461D4A88
:1027600082FB03125211DB17D31A1846FDF7E2FE63
:1027700002460B46C7E904234FF00002164BD7E987
:102780000401FDF741FF02460B46D7E90601FDF7BC
:1027900083FD02460B46C7E902234FF000020F4BB0
:1027A000D7E90201FEF75AF802460B46D7E90401C1
:1027B000FDF774FD02460B46C7E90623D7E9062359
:1027C00043EC172BB0EE470AF0EE670A2037BD4600
:1027D00080BD00BF1F85EB510000594000004E40F6
:1027E0002DE9B04382B000AF7860796891F87F102E
:1027F000002969D17B6871330622BA4918460CF06A
:102800006BF90346002B09D07B6871330622B64969
:1028100018460CF061F90346002B04D17B680122B5
:1028200083F870204EE07B6871330622AF4918466A
:102830000CF052F90346002B09D07B687133062255
:10284000AB4918460CF048F90346002B04D17B68CD
:10285000022283F8702035E07B6871330622A54997
:1028600018460CF039F90346002B09D07B68713308
:102870000622A14918460CF02FF90346002B04D17B
:102880007B68032283F870201CE07B68713306228A
:102890009A4918460CF020F90346002B09D07B68B2
:1028A00071330622964918460CF016F90346002BA0
:1028B00004D17B68042283F8702003E07B68002247
:1028C00083F87020012333E2796891F870100029B1
:1028D00000F02D82796891F87010012940F0C980CC
:1028E0007B6893F87F30013B0A2B00F2138201A230
:1028F00052F823F0212900089B290008B12900087B
:10290000DB290008F12900081B2A00082F2A0008EB
:10291000152D0008432A0008152D00085B2A000821
:102920007B6893F87130303BDBB21A469200134457
:102930005B00DAB27B6893F872301344DBB2303B51
:10294000DAB27B6883F8AA207B6893F87330303B57
:10295000DBB21A46920013445B00DAB27B6893F84C
:1029600074301344DBB2303BDAB27B6883F8AB20BF
:102970007B6893F87530303BDBB21A469200134403
:102980005B00DAB27B6893F876301344DBB2303BFD
:10299000DAB27B6883F8AC20C9E17868FFF7D0FE33
:1029A000B0EE407AF0EE607A7B6883ED227BBEE188
:1029B0007B6893F87130532B05D07B6893F87130A6
:1029C000732B40F0A9817B68D3E92223904683F0E2
:1029D00000497B68C3E922899EE17868FFF7B0FE71
:1029E000B0EE407AF0EE607A7B6883ED247B9EE166
:1029F0007B6893F87130572B05D07B6893F8713062
:102A0000772B40F08B817B68D3E92423144683F035
:102A100000457B68C3E9244580E100217868FFF721
:102A20001DFE0346DAB27B6883F8A9207FE100210E
:102A30007868FFF713FE0346DAB27B6883F8A820B4
:102A400075E100217868FFF753FEB0EE407AF0EEB2
:102A5000607A7B6883ED267B69E100217868FFF767
:102A600047FEB0EE407AF0EE607A7B6883ED287B1B
:102A70005DE1796891F87010022940F083807B68ED
:102A800093F87F30023B0F2B60D801A252F823F05D
:102A9000D12A00084D2B00084D2B00084D2B0008B3
:102AA0004D2B00084D2B00084D2B00084D2B000826
:102AB0004D2B00084D2B00084D2B00084D2B000816
:102AC0004D2B0008052B00081D2B0008352B000896
:102AD00000217868FFF7C2FD0346DAB27B6883F80D
:102AE000A02024E1684A0108704A0108784A0108D8
:102AF000804A0108884A0108904A0108984A01085A
:102B0000A04A010800217868FFF7F2FDB0EE407A94
:102B1000F0EE607A7B6883ED267B08E1002178681F
:102B2000FFF7E6FDB0EE407AF0EE607A7B6883ED69
:102B3000227BFCE000217868FFF7DAFDB0EE407AF6
:102B4000F0EE607A7B6883ED247BF0E07B6893F89D
:102B50007F30022B40F2E4807B6893F87F300E2BAD
:102B600000F2DE8000217868FFF778FD02467B687E
:102B700093F87F30033BD1B27A6813440A4683F856
:102B8000A120CDE0796891F8701003291BD17B68F2
:102B900093F87F30022B02D0032B0AD0C7E000212C
:102BA0007868FFF75BFD0346DAB27B6883F889201B
:102BB000BDE000217868FFF751FD0346DAB27B687B
:102BC00083F88820B3E0796891F87010042940F008
:102BD000A980796891F87F100239092900F2A48050
:102BE00001A050F821F000BF112C0008292D000889
:102BF000292D0008292D0008292D00082B2C00085C
:102C0000432C00085B2C0008D52C0008ED2C000894
:102C10007B6893F87130412B0CBF01230023DBB29A
:102C20001A467B6883F8882081E000217868FFF7E6
:102C30005FFDB0EE407AF0EE607A7B6883ED247B36
:102C400075E000217868FFF753FDB0EE407AF0EEB2
:102C5000607A7B6883ED267B69E07B6893F871304E
:102C6000303BDBB21A46920013445B00DAB27B6859
:102C700093F872301344DBB2303BDAB27B6883F8EE
:102C800089207B6893F87330303BDBB21A469200A0
:102C900013445B00DAB27B6893F874301344DBB200
:102CA000303BDAB27B6883F88A207B6893F8753012
:102CB000303BDBB21A46920013445B00DAB27B6809
:102CC00093F876301344DBB2303BDAB27B6883F89A
:102CD0008B202CE000217868FFF70AFDB0EE407AE7
:102CE000F0EE607A7B6883ED287B20E0796891F8CC
:102CF0007110572904D0796891F87110772915D18E
:102D00007968D1E92801024681F000437968C1E978
:102D100028230BE000BF0AE000BF08E000BF06E088
:102D200000BF04E000BF02E000BF00E000BF0123DD
:102D300018460837BD46BDE8B08300BF80B485B0F3
:102D400000AF78607B6893F871302F2B0DD97B68CA
:102D500093F87130392B08D87B6893F87130303B89
:102D6000DBB21B01DBB25AB226E07B6893F871300C
:102D7000602B0DD97B6893F871307A2B08D87B686B
:102D800093F87130573BDBB21B01DBB25AB213E050
:102D90007B6893F87130402B0DD97B6893F87130C4
:102DA0005A2B08D87B6893F87130373BDBB21B0194
:102DB000DBB25AB200E000227B6893F872302F2B0E
:102DC0000CD97B6893F87230392B07D87B6893F85D
:102DD00072305BB203F00F035BB228E07B6893F8BC
:102DE0007230602B0ED97B6893F872307A2B09D839
:102DF0007B6893F87230573BDBB25BB203F00F0392
:102E00005BB214E07B6893F87230402B0ED97B687C
:102E100093F872305A2B09D87B6893F87230373B9D
:102E2000DBB25BB203F00F035BB200E0002313439D
:102E30005BB2FB737B6893F88130FA7B9A420CBFDC
:102E400001230023DBB218461437BD465DF8047B2E
:102E5000704780B582B000AF78607B6893F87030BF
:102E6000012B36D17B68D3E922237968C1E900239D
:102E70007B68D3E924237968C1E902237B68D3E91D
:102E800026237968C1E904237B68D3E9282379687C
:102E9000C1E906237B6893F8A8207B6883F820208B
:102EA0007B6893F8A9207B6883F821207B6893F8DE
:102EB000AA207B6883F822207B6893F8AB207B688C
:102EC00083F823207B6893F8AC207B6883F8242068
:102ED00061E07B6893F87030022B21D17B68D3E9E5
:102EE00022237968C1E90A237B68D3E9262379681C
:102EF000C1E90E237B68D3E924237968C1E90C2357
:102F00007B6893F8A0207B6883F840207B6803F1FE
:102F100041007B68A1330C2219460BF04DF83AE0D2
:102F20007B6893F87030032B06D17B6893F8882078
:102F30007B6883F84D202EE07B6893F87030042B7B
:102F400029D17B68D3E926237968C1E916237B68F8
:102F500093F888207B6883F84E207B68D3E924238C
:102F60007968C1E914237B68D3E928237968C1E92A
:102F700018237B6893F889207B6883F868207B6836
:102F800093F88A207B6883F869207B6893F88B200C
:102F90007B6883F86A20012318460837BD4680BD48
:102FA00080B582B000AF7860B022002178680BF065
:102FB00011F8012318460837BD4680BD80B586B09C
:102FC00000AFF860B9607A60BB687B61ADE07B6997
:102FD0001B78242B28D1FB6870334022002118462F
:102FE0000AF0F8FFFB6893F87E300B2B00F2978015
:102FF000FB6893F87E3019467B691A78FB680B44AE
:1030000083F87120FB6893F87E300133DAB2FB68F5
:1030100083F87E20FB6893F87E301A46FB681344E1
:10302000002283F871207AE07B691B782C2B1DD15C
:10303000F868FFF7D5FBFB6893F881207B691B7864
:103040005340DAB2FB6883F88120FB68002283F8E2
:103050007E20FB68002283F87120FB6893F87F30A4
:103060000133DAB2FB6883F87F2058E07B691B7874
:103070002A2B17D1F868FFF7B3FBFB68012283F80E
:103080008020FB68002283F87E20FB68002283F802
:103090007120FB6893F87F300133DAB2FB6883F864
:1030A0007F203CE07B691B780D2B09D1F868FFF786
:1030B00045FE0346002B32D0F868FFF7CAFE2EE02B
:1030C000FB6893F88030002B09D1FB6893F88120CE
:1030D0007B691B785340DAB2FB6883F88120FB6878
:1030E00093F87E300B2B1AD8FB6893F87E30194684
:1030F0007B691A78FB680B4483F87120FB6893F8AE
:103100007E300133DAB2FB6883F87E20FB6893F8E7
:103110007E301A46FB681344002283F871207B69D5
:1031200001337B617B68013B7B607B68002B7FF414
:103130004EAF012318461837BD4680BD80B483B01A
:1031400000AF786039603B6807EE903AF8EE676A46
:103150007B6807EE903AB8EE677AC6EE877A9FED05
:10316000127A67EE877A9FED107AF4EEC77AF1EE65
:1031700010FA00D412E03B6807EE903AF8EE676A66
:103180007B6807EE903AB8EE677AC6EE877A9FEDD5
:10319000067A67EE877A054BC3ED007A00BF0C37DD
:1031A000BD465DF8047B70470000C8426002002005
:1031B00080B582B000AF78607B68174A934227D110
:1031C000164B1B780A2B10D0154B1B785BB2002BCB
:1031D0000BDB134B1B785A1CD1B2114A11701A46E3
:1031E0000E4B19780F4B99540DE00D4B1B780133A2
:1031F0001A460C490C48FFF7E1FE094B00221A70F1
:10320000064B00221A7001220449034806F0F1FC23
:1032100000BF0837BD4680BD90040020A1080020F3
:10322000A0080020200800207007002080B483B090
:1032300000AF0346FB80094B1B6800225A6200BFA7
:10324000064B1B685A6AFB889A42F9D300BF00BF3D
:103250000C37BD465DF8047B704700BF04040020B6
:1032600080B588B000AF78600B467B8007F10C0317
:1032700000221A605A609A60DA601A617B88FB60EB
:1032800001233B610023BB6107F10C0319467868F9
:1032900002F0D6FF00BF2037BD4680BD80B588B0A4
:1032A00000AF78600B467B8007F10C0300221A60A8
:1032B0005A609A60DA601A617B88FB6000233B6188
:1032C00001237B6107F10C031946786802F0B8FF0F
:1032D00000BF2037BD4680BD80B582B000AF00235F
:1032E000FB7102211348FFF7BBFF002202211148A6
:1032F00003F042F94FF4F070FFF798FF02210D48F8
:10330000FFF7CCFF5020FFF791FF0221094803F09F
:103310001BF90346002B02D10123FB7101E0FF23BF
:10332000FB714FF4F070FFF781FFFB791846083707
:10333000BD4680BD0000024080B584B000AF0346AA
:10334000FB7102211E48FFF78BFF0023FB602EE07C
:10335000FA79FB6842FA03F303F00103002B13D060
:1033600002211748FFF77CFF00220221144803F0D6
:1033700003F90120FFF75AFF02211148FFF78EFFE2
:103380003220FFF753FF0FE002210D48FFF768FFDF
:10339000002202210A4803F0EFF83220FFF746FF2F
:1033A00002210748FFF77AFFFB680133FB60FB68E7
:1033B000072BCDDD00BF00BF1037BD4680BD00BF6D
:1033C0000000024080B582B000AF0023FB710221F3
:1033D0001A48FFF763FF00233B6026E002211748ED
:1033E000FFF73EFF00220221144803F0C5F8012038
:1033F000FFF71CFF02211148FFF750FF02210F4881
:1034000003F0A2F80346002B09D001223B6802FA20
:1034100003F35AB297F9073013435BB2FB713220C2
:10342000FFF704FF3B6801333B603B68072BD5DDAA
:10343000FB7918460837BD4680BD00BF000002403A
:103440002DE9F04F99B00EAF02F020FD00F020FE04
:1034500001F034F800F0B2FE00F08EFF00F00AFF39
:1034600007F0F2FA00F0D6FF00F0FEFF00F078FE61
:1034700000F0D2FE00F034FF01F052FEB94805F032
:103480001BFF042301930023009303230122052142
:103490000220FDF7EBFE4FF4FA7002F039FDB2485E
:1034A00005F064FFB148FFF77BFD0122B049B14848
:1034B00006F09FFBB049B14801F0EFFAAF4801F0C8
:1034C00063FBAE4801F02AFD072301220321AB482C
:1034D00001F0EAFC0121A94801F04DFC0021A748B8
:1034E00001F06CFC0421A54801F026FC9FEDA40A24
:1034F000A24801F089FC9FEDA20AA04801F0ACFCB3
:1035000003219E4801F0F2FB01219C4801F04DFB94
:1035100001219A4801F089FB0121984801F06DFBD7
:103520000023BB8407F1240201230021934801F00A
:1035300006FB02F01AF840F2DC5002F0E9FC914B75
:1035400000221A70904B00221A70904B00221A60D1
:103550008F4B00221A808F4B00221A608E4801F098
:1035600079FD8E4801F076FD8D4801F073FDFEF780
:1035700017FB824801F07FFB0346002B02D07F48F7
:1035800001F086FBFFF7A8FE012002F0C1FCCC2071
:10359000FFF7D2FE4420FFF7CFFEFFF79DFE01208C
:1035A00002F0B6FCCC20FFF7C7FEBE20FFF7C4FE3A
:1035B000FFF708FF03461A467A4B1A70FFF702FF1F
:1035C00003461A46784B1A70774B1B781B021AB2C7
:1035D000744B1B781BB213431BB29AB2734B1A8005
:1035E000724B1B8807EE903AB8EE677AF3EE006AEA
:1035F000C7EE267A6E4BC3ED007A644B1B68012B35
:1036000040F09080FEF7CCFA00226A496A4809F03F
:1036100069FC564B93F822301C46544B93F82330E8
:103620001D46524B93F824301A46504B93F868309D
:1036300019464E4B93F8693018464C4B93F86A3054
:1036400003930290019100922B4622465B495C480D
:103650000BF022FA13225A495A4809F089FC594BB7
:10366000DB68194657480AF08BF8574957480BF062
:1036700013FA544955480AF01EFB554B1B6818466F
:10368000FCF76AFFC7E90601524B1B681846FCF7B6
:1036900063FF04460D46504BD3ED007A9FED4F7A01
:1036A000C7EE876A16EE900AFCF756FF80468946F9
:1036B0004B4B1B681846FCF74FFF82468B46494B25
:1036C0001B681846FCF748FF02460B46CDE9062367
:1036D000CDE904ABCDE90289CDE90045D7E9062360
:1036E00041493A480BF0D8F9364938480AF0E3FA2C
:1036F0003E4936480BF0D0F9324934480AF0DBFA3B
:10370000244B00221A60224B00221A80384801F014
:10371000A1FC384801F09EFC374801F09BFC1B4B94
:1037200002221A60194B1B68022B40F03582334B82
:103730001B68002B7ED10D4BD3E900014FF0000236
:103740004FF00003FDF7C8F90346002B72D1074B79
:10375000D3E902014FF000024FF00003FDF7BCF97E
:103760004EE000BF04040020BC03002070070020CE
:10377000A1080020900400206802002068060020B4
:103780006666C64064060020650600203C060020F0
:1037900040060020440600209C050020C8050020AB
:1037A000F4050020E9090020EA090020EC090020C6
:1037B000E4090020A84A0108F0090020AC4A0108E9
:1037C00070090020281A0020C44A0108A808002017
:1037D000D8090020E0090020DC09002000007A441C
:1037E0000C00002010000020F84A0108144B0108CA
:1037F000F4040020200500204C050020A40800202F
:103800000346002B16D1AD4BD3E9002310461946D1
:10381000FDF7F2F90346AA4A1360A84BD3E9022345
:1038200010461946FDF7E8F90346A64A1360A64B71
:1038300001221A60A14BD3E9002310461946FDF777
:10384000DBF904469D4BD3E9022310461946FDF7E8
:10385000D3F902469A4BD3ED007A9A4B93ED007A56
:10386000F0EE471AB0EE671A00EE902A00EE104A0A
:1038700000F08EFFF0EE407A944BC3ED007A924B4D
:103880001B68012B46D1904B1E68914B1B68BB6196
:103890008A4BD3E90045894BD3E902898D4B1B68DC
:1038A0001846FCF759FEC7E904018B4B1B68184604
:1038B000FCF752FEC7E90201884B1B681846FCF76B
:1038C0004BFE82468B46864B1B681846FCF744FE2F
:1038D000844B1B680C93CDE90A01CDE908AB97ED49
:1038E000027B8DED067B97ED047B8DED047BCDE9AE
:1038F0000289CDE90045BB6932467B497B480BF024
:10390000CBF87B4979480AF0D6F96F4B1B68013335
:103910006D4A1360774B1B88B3F5C87FC0F03C81BC
:103920006A4B93ED007A744BD3ED007AB4EEE77AEC
:10393000F1EE10FA40F33081634B1B68012B40F32A
:103940002B81624B93ED007A624BD3ED007A37EE18
:10395000277AF0EE006AC7EE267A5E4BC3ED007A56
:103960005A4B93ED007A644BD3ED007A77EE677A89
:103970009FED627A67EE876A5E4B1B8807EE903A8E
:10398000B8EEE77AC6EE877A5D4BC3ED007A5C4B02
:10399000D3ED007A5B48B0EE670A01F07DFBF0EEF4
:1039A000407A594BC3ED007A574BD3ED007A574814
:1039B000B0EE670A01F070FBF0EE407A464BC3EDC3
:1039C000007A454BD3ED007A5148B0EE670A01F01A
:1039D00063FBF0EE407A4F4BC3ED007A4D4B93ED15
:1039E000007A4D4BD3ED007A77EE677A9FED437AFC
:1039F00067EE876A3F4B1B8807EE903AB8EEE77A8E
:103A0000C6EE877A454BC3ED007A444B93ED007ABE
:103A1000434BD3ED007A37EE277AF0EE006AC7EE1B
:103A2000267A2E4BC3ED007A274B1E68284B1B6865
:103A3000BB61224BD3E90045204BD3E90289254BDA
:103A40001B681846FCF788FDC7E90401224B1B6878
:103A50001846FCF781FDC7E90201204B1B68184698
:103A6000FCF77AFD82468B461D4B1B681846FCF717
:103A700073FD1C4B1B680C93CDE90A01CDE908AB23
:103A800097ED027B8DED067B97ED047B8DED047B3E
:103A9000CDE90289CDE90045BB6932461249134898
:103AA0000AF0FAFF124911480AF005F9064B1B68A3
:103AB0000133054A1360054B1B6833E07007002093
:103AC0008405002088050020A4080020D4040020DC
:103AD00044060020DC040020E804002080050020CB
:103AE000E409002098050020604B0108A808002088
:103AF000281A002040060020D804002000007A4444
:103B0000E0040020F4040020E4040020200500204C
:103B10004C050020EC040020F00400207805002073
:103B20007C050020B24A1360B24B1B68B24A136096
:103B3000B24B1B68B24A1360B24B93ED007AB24BA2
:103B4000D3ED007A77EE277AAE4BC3ED007AAF4B18
:103B50001A68AF4B1B681344AC4A1360AD4B93ED2E
:103B6000007AA94BD3ED007AB4EEE77AF1EE10FAC1
:103B70000FD5A54B1B68A74A1360A74B1B68A74A24
:103B80001360A34B1B68A64A1360A64B1B68A64A8A
:103B90001360A64B00221A80A54B1B68032B0FD085
:103BA000A44BD3ED007A9FEDA47AF4EEC77AF1EE40
:103BB00010FA05DA984B1B68A04A934240F2B28192
:103BC000954B1B681846FCF7A5FC04460D469C4B1C
:103BD000D3E904017EA3D3E90023FCF715FD0246D7
:103BE0000B4643EC172BB0EE470AF0EE670A0EF0D7
:103BF0009FFC51EC100B78A3D3E90023FCF704FDE4
:103C000002460B4676A1D1E90001FCF745FB0246CE
:103C10000B4620462946FCF7F7FC02460B461046A9
:103C20001946FCF7E9FF0346864A1360754BD3ED4E
:103C3000006A854B1B68013B07EE903AB8EEE77AC5
:103C4000C6EE877A6F4BC3ED007A704B1A687E4BD5
:103C50001B68023B92FBF3F36C4A13606B4B1B68CF
:103C60001846FCF767FC04460D46784BD3ED007A06
:103C70009FED777A77EE677A17EE900AFCF76CFC87
:103C800059A3D3E90023FCF7BFFC02460B462046AC
:103C90002946FCF749FF0346002B0AD05B4B1B6803
:103CA0001A466C496C480AF0F7FE6C496A480AF0FB
:103CB00002F8564B1B681846FCF73CFC04460D46C0
:103CC000624BD3ED007A9FED627A77EE677A17EE5A
:103CD000900AFCF741FC44A3D3E90023FCF794FCD1
:103CE00002460B4620462946FCF70AFF0346002BF6
:103CF0000AD0464B1B681A46594957480AF0CCFE71
:103D00005649554809F0D7FF564953480AF0C4FEB2
:103D10005249514809F0CFFF3F4B1B68BB61494BEB
:103D20001B681846FCF718FC80468946414B1B6807
:103D30001846FCF711FC82468B46324B1B6818462E
:103D4000FCF70AFCC7E90401324B1B681846FCF774
:103D500003FCC7E90201314B1E68314B19687960D9
:103D6000314B1B681846FCF7F7FB04460D463E4BEB
:103D70001B681846FCF7F0FB02460B46CDE90C2306
:103D8000CDE90A4579680991089697ED027B8DED9A
:103D9000067B97ED047B8DED047BCDE902ABCDE98D
:103DA0000089BA6931492C480AF076FE2B492A4825
:103DB00009F081FF294809F0B9FC01222C490020B3
:103DC00009F090F8204B00221A6053E0AFF3008016
:103DD000FCA9F1D24D6220BFB81E85EB51B89E3FC1
:103DE0007B14AE47E17AF03F9A9999999999E93F06
:103DF000D8040020EC040020F00400207805002006
:103E00007C0500204C060020E80400205C06002011
:103E1000980500205006002044060020540600208B
:103E200058060020E409002060060020400600201B
:103E30003C060020DC0400200000C84280A90300EA
:103E40007007002048060020A40800201000002071
:103E500000005C43884B0108A8080020281A0020B5
:103E6000A84B0108C84B0108600200203C4C010827
:103E7000644C0108644B00221A60644B00221A80D3
:103E8000634B00221A60634B4FF000021A60624BD2
:103E90004FF000021A60614B4FF000021A60604B55
:103EA0004FF000021A605F4B4FF000021A605E4B49
:103EB0004FF000021A605D4B4FF000021A605C4B3D
:103EC0004FF000021A605B4B4FF000021A605A4B31
:103ED0004FF000021A60594B4FF000021A60584B25
:103EE0004FF000021A60574B4FF000021A60564B19
:103EF0004FF000021A60554B4FF000021A60544B0D
:103F00004FF000021A60534B00221A60524B0022FD
:103F10001A60524B4FF000021A60514B00221A6097
:103F200001F023FB4F4BD3ED007AFCEEE77AC7EDAF
:103F3000067A3B7EDAB24C4B1A704C4BD3ED007ACA
:103F4000FCEEE77AC7ED067A3B7EDAB2484B1A7090
:103F50000021002001F04EFA464B1A68424B1B78B4
:103F60001946434B1B7800930B46434943480AF0DC
:103F700093FD01224249414801F0D2FA0B21002071
:103F800001F038FA01223E493E4801F0C9FA234BBC
:103F90001B681846FCF7E0FA80468946224B1B68EE
:103FA0001846FCF7D9FA04460D46244B1B68184600
:103FB000FCF7D2FA02460B46CDE90223CDE90045D3
:103FC00042464B4630492D480AF066FD1621002036
:103FD00001F010FA01222A49284801F0A1FA2C2107
:103FE000002001F007FA084B1A68094B1B682749A3
:103FF00022480AF051FD01222149204801F090FA9F
:1040000001F052F9FFF7B5BA3C0600204006002047
:1040100044060020D4040020D8040020DC04002042
:10402000E0040020E4040020E8040020EC04002068
:10403000F0040020780500207C0500208005002089
:104040008405002088050020480600204C0600203A
:10405000500600205406002058060020600600206C
:104060005C0600206002002064020020E4090020B9
:10407000E809002098050020684C0108A4090020E8
:10408000040000207C4C01088C4C01089C4C010869
:1040900080B594B000AF07F120033022002118460C
:1040A00009F098FF07F10C0300221A605A609A6029
:1040B000DA601A610023BB60274B1B6C264A43F071
:1040C00080531364244B1B6C03F08053BB60BB68AC
:1040D00000237B60214B1B68204A43F4404313605C
:1040E0001E4B1B6803F440437B607B6802233B62EA
:1040F0000123FB6210233B630223BB630023FB63AA
:1041000008233B6464237B640223BB640423FB64B5
:1041100007F12003184603F0C3FF0346002B01D02C
:1041200000F0B6FC0F23FB6002233B6100237B61A0
:104130004FF48053BB610023FB6107F10C030321A3
:10414000184604F025FA0346002B01D000F0A0FC2D
:1041500000BF5037BD4680BD0038024000700040AF
:1041600080B500AF124B134A1A60114B124A5A60C5
:104170000F4B00229A600E4B0022DA600C4B4FF47A
:1041800080421A610A4B00225A61094B00229A614F
:10419000074B0022DA61064B00221A62044802F043
:1041A0001DFA0346002B01D000F072FC00BF80BD59
:1041B0006802002000540040801A060080B500AF5D
:1041C000124B134A1A60114B124A5A600F4B0022CD
:1041D0009A600E4B0022DA600C4B4FF480421A6159
:1041E0000A4B00225A61094B00229A61074B0022B8
:1041F000DA61064B00221A62044802F0EFF9034626
:10420000002B01D000F044FC00BF80BDBC020020A8
:1042100000580040801A060080B500AF124B134AC8
:104220001A60114B124A5A600F4B00229A600E4BD3
:104230000022DA600C4B4FF480421A610A4B0022D4
:104240005A61094B00229A61074B0022DA61064B42
:1042500000221A62044802F0C1F90346002B01D083
:1042600000F016FC00BF80BD10030020005C004081
:10427000801A060080B500AF174B184A1A60164B1B
:104280004FF482725A60144B00229A60124B002243
:10429000DA60114B00221A610F4B00225A610E4B5B
:1042A0004FF400729A610C4B2022DA610A4B002213
:1042B0001A62094B00225A62074B00229A62064B8F
:1042C0000A22DA62044804F075FB0346002B01D091
:1042D00000F0DEFB00BF80BD640300200030014021
:1042E00080B586B000AF07F1080300221A605A605B
:1042F0009A60DA603B4600221A605A601D4B4FF00C
:1043000080421A601B4B63225A601A4B00229A604B
:10431000184B40F2E732DA60164B00221A61154B57
:1043200000229A61134804F077FF0346002B01D066
:1043300000F0AEFB4FF48053BB6007F10803194651
:104340000C4805F07DF90346002B01D000F0A0FBDE
:1043500000233B6000237B603B461946054805F07F
:1043600079FB0346002B01D000F092FB00BF183709
:10437000BD4680BDBC03002080B586B000AF07F10C
:10438000080300221A605A609A60DA603B460022F5
:104390001A605A601D4B1E4A1A601C4B63225A60F9
:1043A0001A4B00229A60194B4FF0FF32DA60174B1C
:1043B00000221A61154B00229A61144804F02CFF68
:1043C0000346002B01D000F063FB4FF48053BB6029
:1043D00007F1080319460D4805F032F90346002B92
:1043E00001D000F055FB00233B6000237B603B467F
:1043F0001946064805F02EFB0346002B01D000F0BD
:1044000047FB00BF1837BD4680BD00BF0404002035
:10441000000C004080B500AF114B124A1A60104BDF
:104420004FF416525A600E4B00229A600C4B002239
:10443000DA600B4B00221A61094B0C225A61084BBF
:1044400000229A61064B0022DA61054805F084FBE0
:104450000346002B01D000F01BFB00BF80BD00BF56
:104460004C0400200010014080B500AF114B124AEF
:104470001A60104B4FF416525A600E4B00229A608D
:104480000C4B0022DA600B4B00221A61094B0C2204
:104490005A61084B00229A61064B0022DA610548F6
:1044A00005F05AFB0346002B01D000F0F1FA00BFE3
:1044B00080BD00BF900400200044004080B58AB059
:1044C00000AF07F1140300221A605A609A60DA60A4
:1044D0001A6100233B614D4B1B6B4C4A43F00403B4
:1044E00013634A4B1B6B03F004033B613B690023DE
:1044F000FB60464B1B6B454A43F080031363434B01
:104500001B6B03F08003FB60FB680023BB603F4B29
:104510001B6B3E4A43F0010313633C4B1B6B03F0E0
:104520000103BB60BB6800237B60384B1B6B374AC1
:1045300043F002031363354B1B6B03F002037B60F4
:104540007B6800220221324802F016F80022012185
:10455000304802F011F84FF400537B614FF404131C
:10456000BB610023FB6107F1140319462A4801F0DF
:1045700067FE02237B610123BB610023FB610023F3
:104580003B6207F114031946214801F059FE01234B
:104590007B610123BB610023FB6100233B6207F1C8
:1045A000140319461B4801F04BFE4FF4A0437B61F6
:1045B0004FF48813BB610223FB6107F11403194612
:1045C000144801F03DFE4FF480737B614FF40413F7
:1045D000BB610123FB6107F1140319460D4801F08B
:1045E0002FFE00220021172001F06EFD172001F0A0
:1045F00087FD00220021282001F066FD282001F01F
:104600007FFD00BF2837BD4680BD00BF0038024097
:1046100000000240000402400008024080B582B061
:1046200000AF0346FB80FB88B3F5005F56D101F075
:1046300063FC0346454A1360444B1A68444B1B68AD
:10464000D31A444A1360434B1B68B3F5A77F08D3C2
:10465000404B1B684EF66022B2FBF3F31A463E4B0A
:104660001A603A4B1B683A4A13603B4B1B6807EED3
:10467000903AF8EEE77A3948B0EE670A00F00CFDA0
:10468000F0EE407AFDEEE77A17EE902A344B1A608E
:10469000334B1B6807EE903AF8EEE77A3148B0EEFC
:1046A000670A00F0F9FCF0EE407AFDEEE77A17EECB
:1046B000902A2D4B1A602C4B1B6807EE903AF8EEAF
:1046C000E77A2A48B0EE670A00F0E6FCF0EE407A9E
:1046D000FDEEE77A17EE902A254B1A6001F00CFCEC
:1046E0000346244A1360FB88B3F5805F10D1214B49
:1046F0001A68214B1B68D31A0A2B09D91F4B0122B8
:104700001A601C4B1B681C4A13601D4B01221A7057
:1047100001F0F2FB03461B4A1360FB88B3F5804FA0
:1047200010D1184B1A68184B1B68D31A0A2B09D9D9
:10473000124B03221A60134B1B68134A1360134B6E
:1047400001221A7000BF0837BD4680BD2806002030
:1047500024060020200600208C0500209C05002057
:1047600090050020C805002094050020F4050020D5
:1047700098050020300600202C0600203C06002072
:10478000640600203806002034060020650600205C
:104790002DE9B0438AB000AF87ED030AC7ED020AE6
:1047A00087ED011AC7ED001AF868FBF7D5FE8CA358
:1047B000D3E90023FBF728FF02460B4610461946B3
:1047C0004FF000028C4BFCF749F802460B461046AE
:1047D0001946FCF711FA0346FB60B868FBF7BCFE0C
:1047E0007FA3D3E90023FBF70FFF02460B461046D9
:1047F00019464FF00002804BFCF730F802460B469A
:1048000010461946FCF7F8F90346BB607868FBF7D9
:10481000A3FE73A3D3E90023FBF7F6FE02460B4683
:10482000104619464FF00002734BFCF717F802468A
:104830000B4610461946FCF7DFF903467B603868E3
:10484000FBF78AFE66A3D3E90023FBF7DDFE0246F1
:104850000B46104619464FF00002674BFBF7FEFF70
:1048600002460B4610461946FCF7C6F903463B6064
:1048700097ED017AD7ED037A77EE677A17EE900A13
:10488000FBF76AFE4FF000025C4BFBF7BDFE0246F1
:104890000B4643EC172BB0EE470AF0EE670A0DF01B
:1048A000BBFDB0EE407AF0EE607A9FED4F1BB0EEAC
:1048B000470AF0EE670A0DF083FE59EC108BF8689A
:1048C000FBF74AFE02460B4643EC102B0DF050FD61
:1048D00055EC104B7868FBF73FFE02460B4643EC65
:1048E000102B0DF045FD53EC102B20462946FBF70D
:1048F0008BFE02460B4614461D4697ED007AD7ED17
:10490000027A77EE677A17EE900AFBF725FE4FF0F2
:1049100000023A4BFBF778FE02460B4643EC172B9E
:10492000B0EE470AF0EE670A0DF076FDB0EE407A81
:10493000F0EE607A9FED2C1BB0EE470AF0EE670AAE
:104940000DF03EFE53EC102B20462946FBF75CFE93
:1049500002460B4640464946FBF7A0FC02460B4682
:10496000C7E9082397ED080B0DF09AFE53EC102BC6
:1049700010461946FCF740F9034600EE903AB7EEB0
:10498000000A00F03DF810EE103A1846FBF7E4FD7F
:1049900002460B4643EC102B0DF096FD51EC100B2C
:1049A00002460B46FBF77AFC02460B46C7E9062394
:1049B0000FA3D3E90023D7E90601FBF725FE024642
:1049C0000B46C7E90423D7E90401FCF715F90346B0
:1049D00007EE903AB0EE670A2837BD46BDE8B083CF
:1049E000182D4454FB210940000000000000004045
:1049F00066F7E4636F4F5841008066400000E03F77
:104A000080B483B000AF87ED010AC7ED000A97EDCF
:104A1000017AD7ED007AB4EEE77AF1EE10FA01DD13
:104A20003B6800E07B6807EE903AB0EE670A0C370F
:104A3000BD465DF8047B704780B582B000AF7860FA
:104A40007B681B68B3F1804F0ED10D4B1B68002BA8
:104A50000AD00C4B1B6801330A4A13600A4B1B88AF
:104A600001339AB2084B1A807B681B68074A93424D
:104A700001D101F02DFA00BF0837BD4680BD00BF4F
:104A80003C060020440600204006002000000140B3
:104A900080B400AF72B600BFFEE780B582B000AF51
:104AA000786039607B683A681A607B68002283F816
:104AB00004217B68043380220021184609F08AFA19
:104AC0007B68843380220021184609F083FA00BFF6
:104AD0000837BD4680BD80B588B002AFF8607A6007
:104AE0001A460B46FB7213463B813B89013318463D
:104AF00009F052FA03467B617B69FA7A1A707B6887
:104B0000002B09D03B89002B06D07B6901333A8901
:104B10007968184609F050FAFB6818683B89013338
:104B20009BB24FF47A7200927A69AE2101F09AFE3C
:104B3000786909F039FA00BF1837BD4680BD80B5E5
:104B400088B002AFF8607A601A460B46FB721346D3
:104B50003B81FB7AFB75FB68186807F117024FF47D
:104B60007A7300930123AE2101F07CFEFB68186884
:104B70003B894FF47A7200927A68AE2101F070FF9F
:104B800000BF1837BD4680BD80B584B000AF7860E7
:104B90004023FB7307F10F02012309217868FFF717
:104BA0009AFF00BF1037BD4680BD80B584B000AF0E
:104BB00078600B46FB700023FB7307F10F020123A3
:104BC00002217868FFF7BBFFFB7B03F07F03DBB2BA
:104BD000FB73FB78DB015AB2FB7B5BB213435BB226
:104BE000DBB2FB7307F10F02012302217868FFF7A4
:104BF00072FF00BF1037BD4680BD80B584B000AFE6
:104C000078600B46FB70FB785B00DBB203F00203BD
:104C1000DBB2FB7307F10F02012303217868FFF772
:104C20005AFF00BF1037BD4680BD80B584B000AFCD
:104C300078600B46FB70FB785B00DBB203F002038D
:104C4000DBB2FB7307F10F02012321217868FFF724
:104C500042FF00BF1037BD4680BD80B483B000AFB7
:104C600078607B68012283F8042100BF0C37BD46C1
:104C70005DF8047B704780B483B000AF78607B68D8
:104C800093F8043118460C37BD465DF8047B704735
:104C900080B584B000AF78600023BB8107F10C02BF
:104CA000022300217868FFF74AFF3B7BDB09DBB278
:104CB00003F00103002B02D0786800F04EF97B7BF3
:104CC0005B08DBB203F00103002B07D007F10A02F7
:104CD00007F10B031946786800F0A6F97B680022FB
:104CE00083F8042100BF1037BD4680BD80B584B075
:104CF00000AF78600B46FB7007F10F02012309211A
:104D00007868FFF71CFFFB7B5BB223F007035AB206
:104D100097F9033013435BB2DBB2FB7307F10F0269
:104D2000012309217868FFF7D6FE786800F0F6F8CD
:104D300000BF1037BD4680BD80B584B000AF78603D
:104D40000B46FB7007F10F0201230A217868FFF779
:104D5000F6FEFB7B9B00DBB223F07303DBB2FB733D
:104D600007F10F0201230A217868FFF7B4FE00BFA4
:104D70001037BD4680BD80B584B000AF78600B466B
:104D8000FB7007F10F0201230A217868FFF7D7FEB5
:104D9000FB7B5BB203F07C035AB297F903301343F9
:104DA0005BB2DBB2FB7307F10F0201230A217868C3
:104DB000FFF791FE00BF1037BD4680BD80B584B0BF
:104DC00000AF78600B46FB7007F10F0201230A2148
:104DD0007868FFF7B4FEFB7B5BB203F01F035AB2A7
:104DE000FB785B015BB213435BB2DBB2FB7307F191
:104DF0000F0201230A217868FFF76DFE00BF10370C
:104E0000BD4680BD0000000080B584B000AF786072
:104E100087ED000A3868FBF79FFB0DA3D3E9002359
:104E2000FBF71CFD02460B4610461946FBF7C4FE75
:104E30000346DBB2FB7307F10F0201230C217868F4
:104E4000FFF749FE00BF1037BD4680BDAFF30080BD
:104E50009A9999999999C93F80B584B000AF7860C3
:104E600087ED000A3868FBF777FB0DA3D3E9002331
:104E7000FBF7F4FC02460B4610461946FBF79CFE76
:104E80000346DBB2FB7307F10F0201230D217868A3
:104E9000FFF721FE00BF1037BD4680BDAFF3008095
:104EA0009A9999999999C93F80B584B000AF786073
:104EB000084611461A460346FB700B46BB70134664
:104EC0007B700023FB73FB785B015AB2FB7B5BB208
:104ED00013435BB2DBB2FB73BB781B015BB203F025
:104EE00010035AB2FB7B5BB213435BB2DBB2FB73C2
:104EF00097F9013003F00F035AB2FB7B5BB2134307
:104F00005BB2DBB2FB7307F10F0201230821786863
:104F1000FFF7E1FD00BF1037BD4680BD80B584B00E
:104F200000AF78600023FB7307F10F020323042115
:104F30007868FFF7D0FD07F10F0203230621786898
:104F4000FFF7C9FD07F10F02032305217868FFF77A
:104F5000C2FD00BF1037BD4680BD80B588B000AF30
:104F600078600023FB740023BB7407F11302012354
:104F700004217868FFF7E3FD07F1120201230621FF
:104F80007868FFF7DCFDFA7CBB7CD31ADBB2FB77D9
:104F900097F91F30002B03DCFB7F2033DBB2FB775C
:104FA0000023BB7735E007F10C0206230721786860
:104FB000FFF7C5FD3B7B1B041A467B7B1B0213439B
:104FC000BA7B1343C3F31103BB61FB7B1B041A467B
:104FD0003B7C1B0213437A7C1343C3F311037B61B5
:104FE00097F91E307A689B001344BA695A6097F9A2
:104FF0001E307A6820339B0013447A695A607969BD
:10500000B869FEF79BF897F91E30DBB20133DBB2CB
:10501000BB7797F91E2097F91F309A42C3DB00BF78
:1050200000BF2037BD4680BD80B584B000AFF860BA
:10503000B9607A600123BA681F21F868FFF77FFD25
:1050400001237A682021F868FFF779FD00BF103747
:10505000BD4680BD80B485B000AF78607B684FF0FE
:1050600000025A627B6800229A620023FB6009E01A
:105070007A68FB689B0013444FF000021A60FB68DB
:105080000133FB60FB68082BF2D900BF00BF143767
:10509000BD465DF8047B704780B483B000AF87EDF8
:1050A000010A38603B6893ED097AD7ED017A77EE13
:1050B000277A3B68C3ED097A3B6893ED097A3B6830
:1050C0009B6A3A689B001344D3ED007A77EE677AC7
:1050D0003B68C3ED097A3B689B6A3A689B001344BE
:1050E0007A681A603B689B6A072B05D83B689B6A05
:1050F0005A1C3B689A6202E03B6800229A623B6855
:10510000D3ED097AB2EE027AC7EE876AF0EE667ADC
:10511000B0EE670A0C37BD465DF8047B70470000AF
:1051200080B582B000AF00F029FA44F62063012276
:1051300078215B4802F0DAF90346002B01D0002306
:10514000A9E040F6C4137B6002E07B68013B7B6012
:105150007B68002BF9D1AE220021782000F08AFA7A
:1051600020220021782000F085FA102200217820EA
:1051700000F080FAB0220021782000F07BFAC822EB
:105180000021782000F076FA00220021782000F03B
:1051900071FA10220021782000F06CFA40220021E0
:1051A000782000F067FA81220021782000F062FA6E
:1051B000FF220021782000F05DFAA1220021782052
:1051C00000F058FAA6220021782000F053FAA82215
:1051D0000021782000F04EFA3F220021782000F0D4
:1051E00049FAA4220021782000F044FAD3220021B9
:1051F000782000F03FFA00220021782000F03AFAEF
:10520000D5220021782000F035FAF0220021782004
:1052100000F030FAD9220021782000F02BFA222267
:105220000021782000F026FADA220021782000F010
:1052300021FA12220021782000F01CFADB22002142
:10524000782000F017FA20220021782000F012FACE
:105250008D220021782000F00DFA14220021782000
:1052600000F008FAAF220021782000F003FA2E2285
:105270000021782000F0FEF9002000F043F800F053
:1052800013F8084B00221A80064B00225A80054B67
:1052900001225A71012318460837BD4680BD00BF60
:1052A00010030020582E002080B582B000AF0023EC
:1052B000FB711DE0FB79503BDBB21A4600217820E0
:1052C00000F0D8F900220021782000F0D3F9102254
:1052D0000021782000F0CEF9FB79DB01084A1A445E
:1052E00080234021782000F05FF9FB790133FB71C6
:1052F000FB79072BDED900BF00BF0837BD4680BD54
:10530000582A002080B582B000AF0346FB71FB79BC
:10531000002B01D1002300E0FF234FF480621946E7
:10532000034808F057FE00BF0837BD4680BD00BFE8
:10533000582A002080B483B000AF0346FB800B46A0
:10534000BB801346FB70FB887F2B48D8BB883F2B64
:1053500045D8264B1B79002B06D0FB78002B0CBFC1
:1053600001230023DBB2FB70FB78012B1AD1FA88F2
:10537000BB88DB0898B20346DB0113441C4AD35CAC
:105380005AB2BB8803F00703012101FA03F35BB2B1
:10539000134359B2FA880346DB011344C9B2144AD5
:1053A000D1541DE0FA88BB88DB0898B20346DB01C4
:1053B00013440F4AD35C5AB2BB8803F007030121A0
:1053C00001FA03F35BB2DB435BB2134059B2FA88D4
:1053D0000346DB011344C9B2054AD15400E000BFC3
:1053E0000C37BD465DF8047B704700BF582E002087
:1053F000582A002080B483B000AF03460A46FB80E1
:105400001346BB80054AFB881380044ABB8853803F
:1054100000BF0C37BD465DF8047B7047582E002056
:1054200080B586B000AF03463960FB711346BB718F
:105430003A4B1B881A463B681B7813447F2B07DCCA
:10544000364B5B881A463B685B7813443F2B01DD83
:1054500000235EE000237B614BE03B685A68FB79E8
:10546000203B3968497801FB03F319467B690B44FB
:105470005B0013441B88FB6000233B6130E0FA684B
:105480003B6902FA03F303F40043002B10D0234BD3
:105490001A883B699BB2134498B2204B5A887B69A7
:1054A0009BB213449BB2BA791946FFF743FF14E04D
:1054B0001A4B1A883B699BB2134498B2174B5A880F
:1054C0007B699BB2134499B2BB79002B0CBF0123BB
:1054D0000023DBB21A46FFF72DFF3B6901333B6126
:1054E0003B681B781A463B699342C8D37B690133FA
:1054F0007B613B685B781A467B699342ADD3074B6F
:105500001A883B681B789BB213449AB2034B1A80EB
:10551000FB7918461837BD4680BD00BF582E0020C5
:1055200080B584B000AFF860B9601346FB7112E03B
:10553000FB681B78FA79B9681846FFF771FF0346D4
:105540001A46FB681B789A4202D0FB681B7808E079
:10555000FB680133FB60FB681B78002BE8D1FB681C
:105560001B7818461037BD4680BD80B500AF0020BF
:10557000FFF7C8FEFFF798FE00BF80BD80B483B080
:1055800000AF084B7B6002E07B68013B7B607B687F
:10559000002BF9D100BF00BF0C37BD465DF8047B7E
:1055A000704700BF90D0030090B5C7B002AF04466B
:1055B000084607F58871A1F588710A60194607F554
:1055C0008873A3F2091322461A7007F58873A3F5AE
:1055D000857302461A7007F58873A3F586730A4629
:1055E0001A8007F58873A3F5827307F58872A2F510
:1055F000857212781A70002387F80F3115E097F83A
:105600000F3107F58872A2F5887212681A4497F86C
:105610000F310133117807F58872A2F58272D154E7
:1056200097F80F31013387F80F3197F80F319BB29C
:1056300007F58872A2F5867212889A42DFD807F5BC
:105640008873A3F209131B7899B207F58873A3F541
:1056500086731B8801339BB207F10C020A2000906D
:10566000034801F0FFF800BF07F58A77BD4690BDFB
:105670001003002080B586B002AF0346FB710B46D5
:10568000BB7113467B71BB793B737B797B73FB7971
:1056900099B207F10C020A2300930223034801F098
:1056A000E1F800BF1037BD4680BD00BF10030020E9
:1056B00080B483B000AF00237B60104B5B6C0F4A5B
:1056C00043F4804353640D4B5B6C03F480437B6075
:1056D0007B6800233B60094B1B6C084A43F08053F6
:1056E0001364064B1B6C03F080533B603B6800BFA8
:1056F0000C37BD465DF8047B704700BF00380240A0
:1057000080B58EB000AF786007F1240300221A60E4
:105710005A609A60DA601A617B681B68634A934238
:105720002CD100233B62624B1B6B614A43F00203A6
:1057300013635F4B1B6B03F002033B623B6AC023A6
:105740007B621223BB620023FB6203233B630423BF
:105750007B6307F124031946564800F071FD0023CE
:10576000FB61534B1B6C524A43F400131364504BC0
:105770001B6C03F40013FB61FB6992E07B681B6800
:105780004D4A93423DD10023BB61494B1B6B484AB4
:1057900043F002031363464B1B6B03F00203BB6130
:1057A000BB694FF480637B621223BB620023FB6200
:1057B00003233B6304237B6307F1240319463D481D
:1057C00000F03EFD08237B621223BB620023FB62D4
:1057D00003233B6309237B6307F124031946354800
:1057E00000F02EFD00237B61314B1B6C304A43F4EB
:1057F000800313642E4B1B6C03F480037B617B6975
:105800004FE07B681B682D4A93424AD100233B61DD
:10581000274B1B6B264A43F001031363244B1B6B7E
:1058200003F001033B613B690023FB60204B1B6BD2
:105830001F4A43F0020313631D4B1B6B03F002036B
:10584000FB60FB684FF480737B621223BB62002312
:10585000FB6203233B6304237B6307F124031946A4
:10586000174800F0EDFC10237B621223BB6200237B
:10587000FB6203233B6309237B6307F1240319467F
:105880000C4800F0DDFC0023BB60094B1B6C084A90
:1058900043F400031364064B1B6C03F40003BB606A
:1058A000BB6800BF3837BD4680BD00BF0054004014
:1058B000003802400004024000580040005C0040F4
:1058C0000000024080B58AB000AF786007F1140391
:1058D00000221A605A609A60DA601A617B681B685D
:1058E000194A93422BD100233B61184B5B6C174A3A
:1058F00043F480535364154B5B6C03F480533B615A
:105900003B690023FB60114B1B6B104A43F0010302
:1059100013630E4B1B6B03F00103FB60FB68E0237A
:105920007B610223BB610023FB6103233B620523F0
:105930007B6207F114031946054800F081FC00BFA3
:105940002837BD4680BD00BF00300140003802400E
:105950000000024080B584B000AF78607B681B68AF
:10596000B3F1804F16D10023FB60164B1B6C154A18
:1059700043F001031364134B1B6C03F00103FB6042
:10598000FB68002200211C2000F09EFB1C2000F080
:10599000B7FB12E07B681B680B4A93420DD10023D2
:1059A000BB60084B1B6C074A43F008031364054BAC
:1059B0001B6C03F00803BB60BB6800BF1037BD461B
:1059C00080BD00BF00380240000C004080B58CB0A4
:1059D00000AF786007F11C0300221A605A609A60D9
:1059E000DA601A617B681B68364A93422DD1002326
:1059F000BB61354B5B6C344A43F010035364324B4C
:105A00005B6C03F01003BB61BB6900237B612E4B11
:105A10001B6B2D4A43F0010313632B4B1B6B03F0ED
:105A200001037B617B694FF4C063FB6102233B622E
:105A300000237B620323BB620723FB6207F11C0385
:105A40001946224800F0FCFB38E07B681B68204ABE
:105A5000934233D100233B611B4B1B6C1A4A43F426
:105A600000331364184B1B6C03F400333B613B6938
:105A70000023FB60144B1B6B134A43F001031363B9
:105A8000114B1B6B03F00103FB60FB680C23FB61F4
:105A900002233B6200237B620323BB620723FB627A
:105AA00007F11C031946094800F0CAFB0022002137
:105AB000262000F009FB262000F022FB00BF303733
:105AC000BD4680BD00100140003802400000024089
:105AD0000044004080B58CB000AF78600023BB620A
